:100000000C94F3010C941B020C941B020C941B0225
:100010000C941B020C941B020C941B020C94C11830
:100020000C941B020C941B020C941B020C941B02DC
:100030000C941B020C94E31A0C941B020C941B02EC
:100040000C94121B0C941B020C94121E0C94441E54
:100050000C941B020C941B020C941B020C941B02AC
:100060000C941B020C941B02000000000000005FB7
:1000700000000007000700147F147F14242A7F2A41
:10008000122313086462364955225000050300000C
:10009000001C2241000041221C00082A1C2A0808DA
:1000A000083E0808005030000008080808080060F2
:1000B00060000020100804023E5149453E00427F86
:1000C000400042615149462141454B311814127F8D
:1000D0001027454545393C4A494930017109050316
:1000E0003649494936064949291E0036360000007E
:1000F000563600000008142241141414141441222E
:100100001408000201510906324979413E7E11115D
:10011000117E7F494949363E414141227F4141227A
:100120001C7F494949417F090901013E4141513242
:100130007F0808087F00417F41002040413F017F48
:10014000081422417F404040407F0204027F7F0428
:1001500008107F3E4141413E7F090909063E415159
:10016000215E7F09192946464949493101017F012C
:10017000013F4040403F1F2040201F7F2018207F2C
:100180006314081463030478040361514945430070
:10019000007F4141020408102041417F0000040219
:1001A0000102044040404040000102040020545439
:1001B00054787F48444438384444442038444448C0
:1001C0007F3854545418087E090102081454543CD2
:1001D0007F0804047800447D40002040443D000036
:1001E0007F10284400417F40007C041804787C087C
:1001F00004047838444444387C1414140808141453
:10020000187C7C080404084854545420043F44409B
:10021000203C4040207C1C2040201C3C4030403C86
:1002200044281028440C5050503C4464544C440022
:100230000836410000007F00000041360800080831
:100240002A1C08081C2A08087C1414140838444482
:10025000442004047C04040C5050503C3048FC48BA
:100260003044281028447C404040FC0C1010107C86
:100270007C407C407C7C407C40FC047C5050207C5A
:100280005050207C7C5050200028445454387C101E
:10029000384438085434147C7E1111117E7F49494A
:1002A00049337F494949367F01010103E0514F41FC
:1002B000FF7F4949494177087F08774149494936D5
:1002C0007F1008047F7C2112097C7F0814224120C2
:1002D000413F017F7F020C027F7F0808087F3E417B
:1002E00041413E7F0101017F7F090909063E4141ED
:1002F000412201017F010147281008071C227F22AB
:100300001C63140814637F404040FF070808087FFF
:100310007F407F407F7F407F40FF017F4848307FA4
:100320004830007F007F484830224149493E7F08DD
:100330003E413E462919097F20545454783C4A4A8C
:1003400049317C545428007C0404040CE0544C448F
:10035000FC38545454186C107C106C444454542889
:100360007C2010087C7C4122117C7C1028440020D9
:10037000443C047C7C0810087C7C1010107C3844C1
:100380004444387C0404047C00000008000201009E
:100390000003040700000000000000000102040840
:1003A00010204080010204081020010204081020DF
:1003B000040404040404040402020202020203030B
:1003C00003030303000000002300260029000000AF
:1003D0000000250028002B0000000000240027005A
:1003E0002A00AF0A741E11241FBECFEFD8E0DEBF73
:1003F000CDBF14E0A0E0B1E0E8EDF6E402C0059066
:100400000D92A83EB107D9F728E0A8EEB4E001C0EC
:100410001D92A53AB207E1F713E0C6EED3E004C09F
:100420002297FE010E946123C23ED107C9F70E94B4
:10043000B81E0C946A230C94000060E082E10E94D4
:10044000331C61E08EE00E946C1C68E28FEB97E049
:100450000E947D17609191018FEB97E00E94201719
:100460008CE00E94A21C892B09F076C288E00E94D1
:10047000A21C019779F48091BA079091BB0701966D
:100480009093BB078093BA076AE070E080E090E049
:100490000E947F1B8091BA079091BB07C29724F0FE
:1004A00060E08EE00E946C1C8091F50481117CC09C
:1004B0008FEB97E00E94221840E050E06AE070E085
:1004C0008FEB97E00E94611641E050E060E070E041
:1004D0008FEB97E00E9473166BE873E08FEB97E069
:1004E0000E94121F4AE050E06AE070E08FEB97E054
:1004F0000E94611661E070E08FEB97E00E946D163C
:1005000060EA73E08FEB97E00E94121F44E150E035
:100510006AE070E08FEB97E00E94611663EB73E096
:100520008FEB97E00E94121F4EE150E06AE070E00E
:100530008FEB97E00E94611669EC73E08FEB97E018
:100540000E94121F48E250E060E070E08FEB97E0FD
:100550000E9461166AED73E08FEB97E00E94051F21
:1005600083E10E94ED1BBC01882777FD8095982FC1
:100570000E94CD2120E030E040EA50E40E94812238
:1005800020E030E040E85AE30E948122AB01BC0148
:1005900022E030E08FEB97E00E94C6206AEE73E025
:1005A0008FEB97E00E94051F8091F504813009F0E0
:1005B00088C08FEB97E00E94221840E050E06AE08C
:1005C00070E08FEB97E00E94611661E070E08FEBC6
:1005D00097E00E946D166BE873E08FEB97E00E9446
:1005E000121F4AE050E06AE070E08FEB97E00E9453
:1005F000611641E050E060E070E08FEB97E00E9410
:10060000731660EA73E08FEB97E00E94121F61E0BF
:1006100070E08FEB97E00E946D1644E150E06AE0D5
:1006200070E08FEB97E00E94611663EB73E08FEB55
:1006300097E00E94121F4EE150E06AE070E08FEBFD
:1006400097E00E94611669EC73E08FEB97E00E94DF
:10065000121F48E250E060E070E08FEB97E00E94EC
:10066000611661E070E08FEB97E00E946D166AED15
:1006700073E08FEB97E00E94051F83E10E94ED1B62
:10068000BC01882777FD8095982F0E94CD2120E01E
:1006900030E040EA50E40E94812220E030E040E86F
:1006A0005AE30E948122AB01BC0122E030E08FEBD3
:1006B00097E00E94C6206AEE73E08FEB97E00E94FD
:1006C000051F8091F504823009F088C08FEB97E018
:1006D0000E94221840E050E06AE070E08FEB97E063
:1006E0000E94611661E070E08FEB97E00E946D164A
:1006F0006BE873E08FEB97E00E94121F4AE050E036
:100700006AE070E08FEB97E00E94611660EA73E0A8
:100710008FEB97E00E94121F41E050E060E070E034
:100720008FEB97E00E94731644E150E06AE070E0BE
:100730008FEB97E00E94611663EB73E08FEB97E01D
:100740000E94121F61E070E08FEB97E00E946D162F
:100750004EE150E06AE070E08FEB97E00E94611696
:1007600069EC73E08FEB97E00E94121F48E250E0C3
:1007700060E070E08FEB97E00E94611661E070E04E
:100780008FEB97E00E946D166AED73E08FEB97E0B8
:100790000E94051F83E10E94ED1BBC01882777FDA5
:1007A0008095982F0E94CD2120E030E040EA50E46F
:1007B0000E94812220E030E040E85AE30E9481223A
:1007C000AB01BC0122E030E08FEB97E00E94C62035
:1007D0006AEE73E08FEB97E00E94051F8091F504AD
:1007E000833009F088C08FEB97E00E94221840E028
:1007F00050E06AE070E08FEB97E00E94611661E0E4
:1008000070E08FEB97E00E946D166BE873E08FEB62
:1008100097E00E94121F4AE050E06AE070E08FEB20
:1008200097E00E94611660EA73E08FEB97E00E9408
:10083000121F61E070E08FEB97E00E946D1644E1BB
:1008400050E06AE070E08FEB97E00E94611663EB86
:1008500073E08FEB97E00E94121F41E050E060E0F0
:1008600070E08FEB97E00E9473164EE150E06AE073
:1008700070E08FEB97E00E94611669EC73E08FEBFC
:1008800097E00E94121F48E250E060E070E08FEBBA
:1008900097E00E94611661E070E08FEB97E00E94A4
:1008A0006D166AED73E08FEB97E00E94051F83E100
:1008B0000E94ED1BBC01882777FD8095982F0E9430
:1008C000CD2120E030E040EA50E40E94812220E087
:1008D00030E040E85AE30E948122AB01BC0122E0F3
:1008E00030E08FEB97E00E94C6206AEE73E08FEB5A
:1008F00097E00E94051F8DE00E94A21C019759F409
:100900006CE271E080E090E00E947F1B8091F50432
:100910008F5F8093F5048BE00E94A21C019759F42D
:100920006CE271E080E090E00E947F1B8091F50412
:100930008F5F8093F5048091F504843010F010925D
:10094000F50462E370E080E090E00E947F1B8FEB93
:1009500097E00E94371784CD8091F504823049F4E6
:100960000E94C61A40E45DE063E070E089E00E9406
:10097000CC1A8091F504811104C088EE93E00E94A6
:1009800036188091F504813069F40E94C61A4091AE
:100990008A0150918B0160918C0170918D0189E0E9
:1009A0000E94CC1A61E070E08FEB97E00E946D1618
:1009B00064EF71E080E090E00C947F1BCF93DF93B5
:1009C00080910401863018F082EE80937A00809145
:1009D0000401853019F483EE80937A00809104013C
:1009E000843019F484EE80937A008091040183307E
:1009F00019F485EE80937A0080910401823019F415
:100A000086EE80937A0080910401823018F487EE9C
:100A100080937A0080910401882339F08091040149
:100A2000882359F1E9EFF4E023C0C9EFD4E08091C5
:100A30007A0084FFFCCF80917A00806180937A00F5
:100A400084EF91E00E94A71B80917900899387E051
:100A5000C53BD80761F7E2CF80917A00806180932F
:100A60007A0080917900819387E0E53BF80729F0CF
:100A700080917A0084FFFCCFEFCFDF91CF91089572
:100A8000DF92EF92FF920F931F93CF93DF938FEB41
:100A900097E00E9422188091B607811167C08DE00F
:100AA0000E94A21C0197C1F54091B7075091B80769
:100AB000662757FD6095762F80918A0190918B0172
:100AC000A0918C01B0918D01841B950BA60BB70BE7
:100AD000B7FD09C080938A0190938B01A0938C018C
:100AE000B0938D0108C010928A0110928B01109270
:100AF0008C0110928D0140918A0150918B0160917F
:100B00008C0170918D0189E00E94CC1A63E070E045
:100B100080E090E00E947F1B8BE00E94A21C019766
:100B200029F54091B7075091B807662757FD6095A2
:100B3000762F80918A0190918B01A0918C01B091C8
:100B40008D01480F591F6A1F7B1F40938A015093E4
:100B50008B0160938C0170938D0189E00E94CC1A07
:100B600063E070E080E090E00E947F1B8091B60718
:100B70008823A9F18DE00E94A21C019799F480912D
:100B80008E0190918F01019797FF02C08FEF90E047
:100B900090938F0180938E0163E070E080E090E09D
:100BA0000E947F1B8BE00E94A21C0197C1F48091E0
:100BB0008E0190918F0101968F3F910509F02CF4E1
:100BC00090938F0180938E0104C010928F01109238
:100BD0008E0163E070E080E090E00E947F1B8CE07B
:100BE0000E94A21C019779F463E070E080E090E03D
:100BF0000E947F1B8091B9078F5F8093B907853072
:100C000010F01092B90761E08FEB97E00E94671631
:100C100045E050E060E070E08FEB97E00E946116E5
:100C20006DEE73E08FEB97E00E94051F60918E01DF
:100C300070918F01882777FD8095982F0E94CD2194
:100C400020E030E048EC52E40E94812220E030E0D5
:100C50004FE753E40E943221AB01BC0122E030E0B7
:100C60008FEB97E00E94C62062EF73E08FEB97E076
:100C70000E94051FC091BF07D091C00780918E01CF
:100C800090918F0123E5D22ED89EB001D99E700D90
:100C90001124882777FD8095982F0E94CD2120E090
:100CA00030E04FE753E40E9432210E949A21EE8106
:100CB000FF81EE24E394F12C00E010E09B0140E082
:100CC00050E060E070E08FEB97E00995C091BF07BE
:100CD000D091C00780918E0190918F01D89EB00174
:100CE000D99E700D1124882777FD8095982F0E943A
:100CF000CD2120E030E04FE753E40E9432210E94F2
:100D00009A21EE81FF8101E010E09B0141E050E07B
:100D100060E070E08FEB97E00995C091BF07D0913C
:100D2000C00780918E0190918F01D89EB001D99E0D
:100D3000700D1124882777FD8095982F0E94CD2172
:100D400020E030E04FE753E40E9432210E949A21D4
:100D5000EE81FF8102E010E09B0142E050E060E0A4
:100D600070E08FEB97E00995C091BF07D091C00765
:100D700080918E0190918F01D89EB001D99E700D07
:100D80001124882777FD8095982F0E94CD2120E09F
:100D900030E04FE753E40E9432210E949A21EE8115
:100DA000FF810FE010E09B014FE050E060E070E059
:100DB0008FEB97E00995C091BF07D091C007809154
:100DC0008E0190918F01D89EB001D99E700D112493
:100DD000882777FD8095982F0E94CD2120E030E074
:100DE0004FE753E40E9432210E949A21EE81FF8155
:100DF00000E110E09B0140E150E060E070E08FEB2B
:100E000097E00995C091BF07D091C00780918E01EE
:100E100090918F01D89EB001D99E700D1124882722
:100E200077FD8095982F0E94CD2120E030E04FE79C
:100E300053E40E9432210E949A21EE81FF8101E158
:100E400010E09B0141E150E060E070E08FEB97E043
:100E5000099544E150E065E070E08FEB97E00E9477
:100E6000611662E08FEB97E00E94671660918A013D
:100E700070918B0180918C0190918D010E94CD2108
:100E80000E949A21683E23E072078105910584F44F
:100E90002AE030E0AB01BC018FEB97E00E947D1FA0
:100EA00061E08FEB97E00E94671666EF73E038C051
:100EB000683E23E0720781059105B1F1603127E2B8
:100EC0007207810591056CF40E94CD2120E030E08D
:100ED0004AE754E40E943221AB01BC0122E030E039
:100EE00014C0603A26E8720721E0820791050CF0F1
:100EF000CDC00E94CD2120E030E04AE754E40E94BA
:100F00003221AB01BC0121E030E08FEB97E00E9481
:100F1000C62061E08FEB97E00E94671665EF73E0F3
:100F20008FEB97E00E94121F48E250E060E070E013
:100F30008FEB97E00E94611661E08FEB97E00E94D3
:100F4000671669EF73E08FEB97E00E94051F8091B1
:100F5000B907811112C021E030E040E050E060E8C4
:100F60007FE38FEB97E00E94C62081E090E09093B2
:100F7000B8078093B7071092B6078091B907813000
:100F800081F420E030E040E050E060E271E48FEB7B
:100F900097E00E94C6208AE090E09093B807809383
:100FA000B7078091B907823081F420E030E040E05B
:100FB00050E068EC72E48FEB97E00E94C62084E674
:100FC00090E09093B8078093B7078091B90783307A
:100FD00081F420E030E040E050E06AE774E48FEB19
:100FE00097E00E94C62088EE93E09093B807809324
:100FF000B7078091B907843069F56EEF73E08FEB26
:1010000097E00E94051F60918E0170918F018827E3
:1010100077FD8095982F0E94CD2120E030E048ECAC
:1010200052E40E94812220E030E04FE753E40E9426
:101030003221AB01BC0122E030E08FEB97E00E944F
:10104000C62063EF73E08FEB97E00E94051F81E0FD
:101050008093B60763E074E08FEB97E00E94051F72
:1010600060918E0189E00E94591A6CE271E080E083
:1010700090E00E947F1B8FEB97E0DF91CF911F9153
:101080000F91FF90EF90DF900C9437170E94CD21C5
:1010900020E030E04AE754E40E943221AB01BC0179
:1010A00020E030E032CF8091BC0781118FC08FEB00
:1010B00097E00E94221841E050E060E070E08FEB82
:1010C00097E00E94731640E050E06AE070E08FEB1A
:1010D00097E00E94611666E074E08FEB97E00E9453
:1010E000121F61E070E08FEB97E00E946D164AE0FE
:1010F00050E06AE070E08FEB97E00E94611661E1DA
:1011000074E08FEB97E00E94121F44E150E06AE028
:1011100070E08FEB97E00E94611668E274E08FEB5D
:1011200097E00E94121F4EE150E06AE070E08FEB02
:1011300097E00E94611661E374E08FEB97E00E94F4
:10114000121F61E070E08FEB97E00E946D1648E29D
:1011500050E060E070E08FEB97E00E94611664E67B
:1011600070E080E090E00E947F1B8FEB97E00E9490
:1011700037171B9920C0E091BD07F091BE07EA59CF
:10118000FE4F6081862F90E090938F0180938E01B7
:101190008AE00E94591A8091BD079091BE0701967E
:1011A0009093BE078093BD07809719F71092BE07F2
:1011B0001092BD07DECF8091BC078F5F8093BC0784
:1011C00068EC70E080E090E00E947F1B8091BC079B
:1011D000813009F08DC08FEB97E00E94221861E00A
:1011E00070E08FEB97E00E946D1640E050E06AE0FF
:1011F00070E08FEB97E00E94611666E074E08FEB81
:1012000097E00E94121F41E050E060E070E08FEB39
:1012100097E00E9473164AE050E06AE070E08FEBBE
:1012200097E00E94611661E174E08FEB97E00E9405
:10123000121F61E070E08FEB97E00E946D1644E1B1
:1012400050E06AE070E08FEB97E00E94611668E280
:1012500074E08FEB97E00E94121F4EE150E06AE0CD
:1012600070E08FEB97E00E94611661E374E08FEB12
:1012700097E00E94121F61E070E08FEB97E00E9400
:101280006D1664E670E080E090E00E947F1B8FEBBB
:1012900097E00E9437171B9920C0E091BD07F0919D
:1012A000BE07EA5FFE4F6081862F90E090938F012A
:1012B00080938E018AE00E94591A8091BD07909117
:1012C000BE0701969093BE078093BD07809719F7DC
:1012D0001092BE071092BD07DECF8091BC078F5FD2
:1012E0008093BC0768EC70E080E090E00E947F1B78
:1012F0008091BC07823009F093C08FEB97E00E9489
:10130000221861E070E08FEB97E00E946D1640E0DC
:1013100050E06AE070E08FEB97E00E94611666E0B3
:1013200074E08FEB97E00E94121F61E070E08FEB9A
:1013300097E00E946D164AE050E06AE070E08FEBA3
:1013400097E00E94611661E174E08FEB97E00E94E4
:10135000121F41E050E060E070E08FEB97E00E94E8
:10136000731644E150E06AE070E08FEB97E00E9472
:10137000611668E274E08FEB97E00E94121F61E053
:1013800070E08FEB97E00E946D164EE150E06AE04E
:1013900070E08FEB97E00E94611661E374E08FEBE1
:1013A00097E00E94121F61E070E08FEB97E00E94CF
:1013B0006D1664E670E080E090E00E947F1B8FEB8A
:1013C00097E00E9437171B9920C0E091BD07F0916C
:1013D000BE07EA5BFE4F6081862F90E090938F01FD
:1013E00080938E018AE00E94591A8091BD079091E6
:1013F000BE0701969093BE078093BD07809719F7AB
:101400001092BE071092BD07DECF8091BC078F5FA0
:101410008093BC0768EC70E080E090E00E947F1B46
:101420008091BC07833009F093C08FEB97E00E9456
:10143000221861E070E08FEB97E00E946D1640E0AB
:1014400050E06AE070E08FEB97E00E94611666E082
:1014500074E08FEB97E00E94121F61E070E08FEB69
:1014600097E00E946D164AE050E06AE070E08FEB72
:1014700097E00E94611661E174E08FEB97E00E94B3
:10148000121F61E070E08FEB97E00E946D1644E15F
:1014900050E06AE070E08FEB97E00E94611668E22E
:1014A00074E08FEB97E00E94121F41E050E060E093
:1014B00070E08FEB97E00E9473164EE150E06AE017
:1014C00070E08FEB97E00E94611661E374E08FEBB0
:1014D00097E00E94121F61E070E08FEB97E00E949E
:1014E0006D1664E670E080E090E00E947F1B8FEB59
:1014F00097E00E9437171B9920C0E091BD07F0913B
:10150000BE07EA5DFE4F6081862F90E090938F01C9
:1015100080938E018AE00E94591A8091BD079091B4
:10152000BE0701969093BE078093BD07809719F779
:101530001092BE071092BD07DECF8091BC078F5F6F
:101540008093BC0768EC70E080E090E00E947F1B15
:101550008091BC07843011F41092BC070895EF927B
:101560000F9342E0E42E03E024E046E067E08FEBD7
:1015700097E00E94B3160F91EF900895FF920F939A
:101580001F93CF93DF938FEB97E00E94221861E0C7
:1015900070E08FEB97E00E946D1640E050E06AE04B
:1015A00070E08FEB97E00E94611669EC73E08FEBBF
:1015B00097E00E94121F4AE050E06AE070E08FEB73
:1015C00097E00E94611661E474E08FEB97E00E945F
:1015D000121F44E150E06AE070E08FEB97E00E9458
:1015E000611662E574E08FEB97E00E94051F409161
:1015F00000015091010160910201709103012AE004
:1016000030E08FEB97E00E947D1F64E574E08FEB84
:1016100097E00E94121F4EE150E060E070E08FEB17
:1016200097E00E94611666E574E08FEB97E00E94F8
:10163000121F8BE00E94A21C0197A1F4809100016F
:1016400090910101A0910201B09103018C599F4F2B
:10165000AF4FBF4F8093000190930101A09302010F
:10166000B09303018DE00E94A21C0197A1F4809128
:10167000000190910101A0910201B09103018456F3
:101680009109A109B1098093000190930101A093F0
:101690000201B09303018091000190910101A0919A
:1016A0000201B0910301B7FF0CC080E990EDA3E007
:1016B000B0E08093000190930101A0930201B093E8
:1016C00003018091000190910101A0910201B0916C
:1016D00003018139904DA340B10544F010920001FF
:1016E0001092010110920201109203018CE00E94FD
:1016F000A21C019709F046C04091000150910101E0
:10170000609102017091030126E088E098E00E9458
:10171000B01D8FEB97E00E94221864E670E080E035
:1017200090E00E947F1B8FEB97E00E94371700E04C
:1017300010E0C0E0D0E088E098E00E94CD1C1816D0
:101740001906CCF788E098E00E94E61CF82EA80164
:10175000BE018FEB97E00E9461166F2D8FEB97E033
:101760000E94071F8FEB97E00E9437172696C4351B
:10177000D10521F4085F1F4FC0E0D0E00033110510
:10178000D1F6C7CF64E670E080E090E00E947F1B56
:101790008FEB97E0DF91CF911F910F91FF900C9409
:1017A00037172F923F924F925F926F927F928F9254
:1017B0009F92AF92BF92CF92DF92EF92FF920F93E0
:1017C0001F93CF93DF9300D000D0CDB7DEB788E072
:1017D0000E94A21C019779F48091BA079091BB07EF
:1017E00001969093BB078093BA076AE070E080E0AF
:1017F00090E00E947F1B8091BA079091BB07C2972F
:1018000024F060E08EE00E946C1C8091F504811150
:1018100051C580910501811103C083EE80937C0046
:1018200080910501882319F083E680937C0065E0B0
:1018300070E080E090E00E947F1B8091F6048111AF
:1018400002C00E94DE04509190016091EE0481E09C
:1018500090E020E030E031110EC0FC01E750FB4F7A
:101860004081451708F04FC5541720F4682F21E038
:1018700031E001C021E001968F3F910561F760934F
:10188000EE04EAEFF4E080E090E0219130E082178E
:1018900093070CF4C90125E0E83FF207B1F79093F4
:1018A000F0048093EF048091F6048111A0C08FEBC7
:1018B00097E00E9422188091900167E00E94F82230
:1018C0004FE250E0481B510901E010E022E030E017
:1018D00060E570E08FEB97E00E94FF1483E0809357
:1018E000F8046090EE041C821B82712CC3018750A7
:1018F0009B4F1C01B7E05B2E1FE2812E912C00E371
:10190000A02EB12C2091EE0430E0215B3F4F8B8163
:101910009C81860D971D281739070CF466C090919D
:1019200004018091F804973010F48F5F07C097305E
:1019300011F48E5F03C0983019F48D5F8093F80422
:10194000CB80DC80C20CD31CA091F804B0E0E09006
:10195000BF07F090C007F6018181652D0E94F82233
:101960008401081B11099D012F5F3F4F80810E9458
:10197000F822A401481B5109F7010680F781E02DE8
:10198000EE24E394F12CBD018FEB97E00995E091F3
:10199000F804F0E0E090BF07F090C007D601119680
:1019A0008C911197652D0E94F8228501081B110961
:1019B0009F012E5F3F4F8C910E94F822A501481B8A
:1019C0005109BF016F5F7F4FD7011696ED91FC91D2
:1019D0001797EE24E394F12C8FEB97E00995EB81B8
:1019E000FC813196FC83EB838DCF1092EE048091C5
:1019F000F604811103C00FE210E0C3C08FEB97E043
:101A00000E9422186091E8047091E90477FF02C0F7
:101A1000695F7F4F23E0759567952A95E1F7E0911F
:101A2000BF07F091C0079B012A5F3F4F0680F781F7
:101A3000E02DEE24E394F12C08E010E048E050E0C3
:101A40008FEB97E009956091E8047091E90477FFC6
:101A500002C0695F7F4FB3E075956795BA95E1F76E
:101A6000E091BF07F091C0079B012A5F3F4F0680BE
:101A7000F781E02DEE24E394F12C09E010E049E039
:101A800050E08FEB97E0099583E08093F804209075
:101A9000E8043090E90407E0702E8FE2882E912C44
:101AA00090E3A92EB12C8091E8049091E904815B28
:101AB0009F4F821593050CF49ECF90910401809165
:101AC000F804973010F48F5F07C0973011F48E5FE1
:101AD00003C0983019F48D5F8093F804910127506A
:101AE0003B4F6901A091F804B0E0E090BF07F0908F
:101AF000C007F9018181672D0E94F8228401081B2B
:101B000011099D012F5F3F4F80810E94F822A4019F
:101B1000481B5109F70146805780EE24E394F12CCD
:101B2000BD018FEB97E0F2010995E091F804F0E038
:101B3000E090BF07F090C007D60111968C911197E5
:101B4000672D0E94F8228501081B11099F012E5F55
:101B50003F4F8C910E94F822A501481B5109BF01FB
:101B60006F5F7F4FD7011696ED91FC911797EE248A
:101B7000E394F12C8FEB97E00995BFEF2B1A3B0A0A
:101B800092CF21E030E0A80160E070E08FEB97E0B9
:101B90000E94791621E030E0A80161E070E08FEB4F
:101BA00097E00E94791621E030E0A80162E070E041
:101BB0008FEB97E00E947916075011090530110547
:101BC00001F70FE210E021E030E0A80165E170E0EC
:101BD0008FEB97E00E94791621E030E0A8016AE2DD
:101BE00070E08FEB97E00E94791621E030E0A801C9
:101BF0006FE370E08FEB97E00E94791603501109B4
:101C00000530110501F703E010E021E030E041E28A
:101C100050E0B8018FEB97E00E94791621E030E0A8
:101C200043E150E0B8018FEB97E00E9479160D5F19
:101C30001F4F0435110549F78091F70481115CC0ED
:101C400040E050E060E070E08FEB97E00E946116AA
:101C500041E050E060E070E08FEB97E00E94731687
:101C600080910501811106C061E774E08FEB97E078
:101C70000E94051F80910501882371F04091860123
:101C800050918701609188017091890121E030E0D5
:101C90008FEB97E00E94C62061E070E08FEB97E049
:101CA0000E946D1661E074E08FEB97E00E94051FC3
:101CB0004AE050E0609104018FEB97E00E94D41F4E
:101CC00065E774E08FEB97E00E94051F8DE00E94AE
:101CD000A21C019731F48091050191E0892780933E
:101CE00005018BE00E94A21C019731F4809105014F
:101CF00091E08927809305018091F704813009F0F4
:101D000069C040E050E060E070E08FEB97E00E9437
:101D1000611661E070E08FEB97E00E946D16809194
:101D20000501811106C061E774E08FEB97E00E9426
:101D3000051F80910501882371F040918601509123
:101D40008701609188017091890121E030E08FEB7B
:101D500097E00E94C62041E050E060E070E08FEB29
:101D600097E00E94731661E074E08FEB97E00E94A9
:101D7000051F4AE050E0609104018FEB97E00E945C
:101D8000D41F61E070E08FEB97E00E946D1665E76D
:101D900074E08FEB97E00E94051F8DE00E94A21C6B
:101DA000019749F4809104018150809304018F3F91
:101DB00011F4109204018BE00E94A21C019751F4CF
:101DC000809104018F5F80930401893019F488E0C9
:101DD000809304018091F704823009F074C040E0E0
:101DE00050E060E070E08FEB97E00E94611661E0E8
:101DF00070E08FEB97E00E946D16809105018111D4
:101E000006C061E774E08FEB97E00E94051F8091A8
:101E10000501882371F040918601509187016091FE
:101E200088017091890121E030E08FEB97E00E94FA
:101E3000C62061E074E08FEB97E00E94051F4AE046
:101E400050E0609104018FEB97E00E94D41F41E0C5
:101E500050E060E070E08FEB97E00E94731665E75A
:101E600074E08FEB97E00E94051F81E08093F604F9
:101E70008DE00E94A21C019779F48091E804909172
:101E8000E9040A979093E9048093E80497FF04C05B
:101E90001092E9041092E8048BE00E94A21C0197C2
:101EA00091F48091E8049091E9040A969093E904F2
:101EB0008093E8048D36924034F08CE692E0909363
:101EC000E9048093E8048091F704833009F091C01D
:101ED0001092E9041092E8041092F60440E050E0F9
:101EE00060E070E08FEB97E00E94611661E070E0C7
:101EF0008FEB97E00E946D1680910501811106C05D
:101F000061E774E08FEB97E00E94051F8091050167
:101F1000882371F04091860150918701609188017A
:101F20007091890121E030E08FEB97E00E94C6209C
:101F300061E074E08FEB97E00E94051F4AE050E0FB
:101F4000609104018FEB97E00E94D41F61E070E084
:101F50008FEB97E00E946D1665E774E08FEB97E0DA
:101F60000E94051F8DE00E94A21C019751F48091F0
:101F70009001845180939001843118F484E180931E
:101F800090018BE00E94A21C019751F48091900176
:101F90008C5E80939001873E18F086EE80939001CE
:101FA0008091900177E0F72E6F2D0E94F822EFE2EA
:101FB000CE2ED12CA601481B510901E010E025E0EE
:101FC00030E060E570E08FEB97E00E94FF148091B5
:101FD00090016F2D0E94F822A601481B510900E0D4
:101FE00010E022E030E060E570E08FEB97E00E94C7
:101FF000FF148CE00E94A21C019759F48091F70411
:102000008F5F8093F704843021F41092F7041092CC
:10201000F6040E94B018882351F00E94B318609310
:10202000F1047093F2048093F3049093F404F0901D
:102030009001209004010AEF14E021E030E03A839F
:10204000298390E0E12C80E0812C912C5401312CEB
:1020500054EFC52EDD24D39460E4462E62E4562E60
:102060006FE0662E712C811152C1D8012C912F1571
:1020700038F4F21608F0EFC13980EE24E39447C13A
:10208000E110F7CF911149C1A981BA811196BA83A4
:10209000A9830F5F1F4FAF3FB10529F761E070E0E3
:1020A0008FEB97E00E946D1680910501882309F45B
:1020B000C1C16091EF047091F004882777FD80958D
:1020C000982F0E94CD212091860130918701409167
:1020D0008801509189010E94812220E030E04FE781
:1020E00053E40E9432212B013C0120E030E040E229
:1020F00050E40E947D221816A4F46091F1047091BE
:10210000F2048091F3049091F4040E94CB210E9488
:102110009A216093EA047093EB048093EC0490930B
:10212000ED0420E030E040E250E4C301B2010E943F
:102130002E2187FD7FC18091EA049091EB04A0914C
:10214000EC04B091ED04883E9340A105B105D4F4B0
:1021500061E074E08FEB97E00E94051F4091EA0474
:102160005091EB046091EC047091ED042AE030E0B2
:102170008FEB97E00E947D1F66EF73E08FEB97E097
:102180000E94051F6091EA047091EB048091EC04B9
:102190009091ED04693EF3E07F0781059105B4F06D
:1021A0000E94CD2120E030E04AE754E40E94322131
:1021B000AB01BC0121E030E08FEB97E00E94C6202C
:1021C00065EF73E08FEB97E00E94051F809105019A
:1021D000882381F148E250E060E070E08FEB97E007
:1021E0000E94611661E070E08FEB97E00E946D162F
:1021F0006091EF047091F004882777FD8095982F07
:102200000E94CD2120918601309187014091880163
:10221000509189010E94812220E030E04FE753E491
:102220000E943221AB01BC0121E030E08FEB97E04E
:102230000E94C6208091050181112CC048E250E027
:1022400060E070E08FEB97E00E94611661E070E063
:102250008FEB97E00E946D166091EF047091F0048F
:10226000882777FD8095982F0E94CD212DEC3CEC9E
:102270004CE85FE30E94812220E030E04FE753E426
:102280000E943221AB01BC0121E030E08FEB97E0EE
:102290000E94C62068E774E08FEB97E00E94051F5C
:1022A00068EC70E080E090E00E947F1B8FEB97E08D
:1022B0000E9437178091F504813011F40E94400587
:1022C0008091F504823011F40E9453088091F50446
:1022D000833009F003C10F900F900F900F90DF91A2
:1022E000CF911F910F91FF90EF90DF90CF90BF9013
:1022F000AF909F908F907F906F905F904F903F90A6
:102300002F900C94BE0A222309F4B5CAADCAD80195
:102310008C918F1508F09DC081E0F8019081F9162D
:1023200008F086C0F5E0F215F8F469817A81631946
:10233000710961507109882777FD8095982F0E9457
:10234000CD212EEA37E441E550E40E9481229B0131
:10235000AC0160E074E284E799E40E9432210E94BB
:102360009A214B015C0140C025E022121DC0698109
:102370007A8163197109882777FD8095982F0E94CB
:10238000CD212EEA37E441E550E40E9481229B01F1
:10239000AC0160E074E284E799E40E94322120E01D
:1023A00030E040E05FE391C034E023121DC069815A
:1023B0007A8163197109882777FD8095982F0E948B
:1023C000CD212EEA37E441E550E40E9481229B01B1
:1023D000AC0160E074E284E799E40E94322120E0DD
:1023E00030E040E85EE371C083E028121DC06981DF
:1023F0007A8163197109882777FD8095982F0E944B
:10240000CD212EEA37E441E550E40E9481229B0170
:10241000AC0160E074E284E799E40E94322120E09C
:1024200030E040E05EE351C092E0291691F116C021
:1024300091E02ACEC501B4010E94CD210E949A21CB
:102440006093EA047093EB048093EC049093ED04A2
:1024500072CE81E017CEEE24E39414CEB1E02B16B9
:10246000C1F0211038C089819A81831991098C9D0E
:1024700090018D9D300D9C9D300D1124442737FD1A
:102480004095542FC301B2010E94262349015A01ED
:1024900022C069817A8163197109882777FD809547
:1024A000982F0E94CD212EEA37E441E550E40E94A6
:1024B00081229B01AC0160E074E284E799E40E9410
:1024C000322120E030E040E05DE30E9481220E9462
:1024D0009A214B015C0190E080E0D6CD0F900F90E7
:1024E0000F900F90DF91CF911F910F91FF90EF9080
:1024F000DF90CF90BF90AF909F908F907F906F9024
:102500005F904F903F902F9008952F923F924F925F
:102510005F926F927F928F929F92AF92BF92CF9273
:10252000DF92EF92FF920F931F93CF93DF9300D030
:1025300000D0CDB7DEB74C017C836B836A015901B3
:10254000C8018701AC014C195D0957FF03C05195C3
:102550004195510995016B817C81261B370B37FF13
:1025600003C031952195310922242394312C24175D
:10257000350714F0212C312C2114310459F03A2D57
:102580002B2D5C01832F922F3B812C81DC82CB820F
:10259000C32ED22EAB81BC81AA16BB065CF43C2DA7
:1025A0002D2D6C01832F922F3B812C81BC82AB821D
:1025B000A32EB22E2501EB81FC814E1A5F0A3C014D
:1025C0006C187D0877FE03C07194619471087201E4
:1025D00057FE03C0FFEFEF1AFF0AF594E794C81601
:1025E000D9062CF421E030E03A83298324C06FEF30
:1025F0007FEF7A8369831FC0D401ED91FC91048041
:10260000F581E02D980121143104D9F04B815C81D2
:10261000B601C4010995E618F708F7FE06C0E9817E
:10262000FA81CE0EDF1EE40CF51C2B813C812F5F5E
:102630003F4F3C832B836B817C81A616B706E4F663
:1026400004C0A6016B817C81E4CF0F900F900F90A6
:102650000F90DF91CF911F910F91FF90EF90DF903E
:10266000CF90BF90AF909F908F907F906F905F9032
:102670004F903F902F9008956F927F928F929F92EC
:10268000AF92BF92CF92DF92EF92FF920F931F9380
:10269000CF93DF93EC015B016A0139014801E881C6
:1026A000F9810284F385E02D87010995E881F9819C
:1026B000A601480D591D415051090284F385E02DB2
:1026C0009301B501CE010995E881F9810084F18576
:1026D000E02D9401A601B501CE010995E881F981AB
:1026E000B501660D771D615071090084F185E02DFB
:1026F0009401A601CE010995DF91CF911F910F9111
:10270000FF90EF90DF90CF90BF90AF909F908F9011
:102710007F906F900895EF92FF920F931F93DC01CB
:10272000ED91FC91240F351F215031090680F7816E
:10273000E02D780189019B0109951F910F91FF9070
:10274000EF900895EF92FF920F931F93DC01ED91AC
:10275000FC91260F371F215031090680F781E02DAB
:1027600078018A0109951F910F91FF90EF900895CC
:102770006F927F928F929F92AF92BF92CF92DF9291
:10278000EF92FF920F931F93CF93DF935C014A0167
:1027900069013801EB01C60ED71ECC15DD0574F4B6
:1027A000D501ED91FC910084F185E02D8701930125
:1027B000A401BE01C50109952196EFCFDF91CF910C
:1027C0001F910F91FF90EF90DF90CF90BF90AF904F
:1027D0009F908F907F906F900895EF92FF920F934C
:1027E0001F93DC01ED91FC9111971A960D911C91AC
:1027F0001B9718962D913C9119970684F785E02D2B
:102800007B0140E050E060E070E009951F910F917E
:10281000FF90EF9008950895FC01138212828EE7D5
:1028200094E09183808375836483578346837187A3
:10283000608753874287158A158614861786168601
:1028400021E0248B8FEF9FEF938B828B918B808B7A
:10285000268B08952F923F924F925F926F927F92B4
:102860008F929F92AF92BF92CF92DF92EF92FF92A0
:102870000F931F93CF93DF93CDB7DEB728970FB693
:10288000F894DEBF0FBECDBF5C011B015A834983A4
:1028900038872F83FC82EB8288248394912C821AC0
:1028A000930A3901719461947108660C771C2701B1
:1028B00023E0420E511CEE24E394F12C302F3170B2
:1028C0003D8302700E83C7010197EF81F8858E1753
:1028D0009F070CF07BC097FC0AC08F8198850197F9
:1028E00098878F8392E0690E711C860C971CC20139
:1028F000AB81BC818A1B9B0B880E991EBD81BB23BB
:1029000069F1D501ED91FC912F813885220F331F9C
:102910002F5F3F4F8B819C81280F391F0084F185E9
:10292000E02D860149815A81AF81B8854A1B5B0B36
:10293000B701620D731DC5010995D501ED91FC919B
:102940000084F185E02D920149815A814E195F0979
:102950006F817885620D731DC5010995BE81BB230A
:1029600071F1D501ED91FC912F813885220F331F34
:102970002F5F3F4F8B819C81280F391F0084F18589
:10298000E02D860149815A81AF81B8854A1B5B0BD6
:10299000B1016E197F09C5010995D501ED91FC9131
:1029A0000084F185E02D920149815A814E195F0919
:1029B000B1018F819885681B790BC50109959FEF3F
:1029C000E91AF90AA2E04A0E511C7DCF28960FB6EB
:1029D000F894DEBF0FBECDBFDF91CF911F910F9155
:1029E000FF90EF90DF90CF90BF90AF909F908F902F
:1029F0007F906F905F904F903F902F9008956F92CF
:102A00007F928F929F92AF92BF92CF92DF92EF927E
:102A1000FF920F931F93CF93DF93EC014B013A0189
:102A200059016801E881F981220F331F2F5F3F4F61
:102A3000A3014A195B090084F185E02D0995E12C79
:102A4000F12C03E09501A301B401CE010E942A14E8
:102A5000DF91CF911F910F91FF90EF90DF90CF907A
:102A6000BF90AF909F908F907F906F9008952F921E
:102A70003F924F925F926F927F928F929F92AF920E
:102A8000BF92CF92DF92EF92FF920F931F93CF935B
:102A9000DF93CDB7DEB72C970FB6F894DEBF0FBE2D
:102AA000CDBF9C878B873A0118870F83FA86E9860A
:102AB000CD82DC0118968D919C9119976817790742
:102AC0000CF099C01A968D919C911B974817590745
:102AD0000CF091C08C2C912CCB01B6E0CB9E800DDC
:102AE000911D1124181619060CF085C0C40113E0BD
:102AF000880F991F1A95E1F7840F951F181619066C
:102B00000CF079C030E02052310985E0829F20012D
:102B1000839F500C11245B016B011C829201285988
:102B20003F4F2901461A570A3C81353031F0F201F6
:102B3000EA0DFB1D44914B8301C01B827A8269829E
:102B400013011E828B8180FF13C0AB85BC85ED9184
:102B5000FC91BD81B13031F40480F581E02D2F81ED
:102B6000388519C00684F785E02DEF80F8841EC0F3
:102B7000E985FA852F813885E217F307F9F0AB85EF
:102B8000BC85ED91FC91BD81B13059F40480F58193
:102B9000E02D29853A85A101B5018B859C85099594
:102BA0000DC00684F785E02DE984FA848401940140
:102BB00049815A81B6018B859C850995EB81E69503
:102BC000EB83FE81FF5FFE8329813A81280D391D49
:102BD0003A8329833FEF231A330AF83009F0B2CF42
:102BE0004C814F5F4C83C80CD91C8FEFA81AB80AD0
:102BF000463009F099CF2C960FB6F894DEBF0FBE81
:102C0000CDBFDF91CF911F910F91FF90EF90DF909B
:102C1000CF90BF90AF909F908F907F906F905F907C
:102C20004F903F902F900895CF92EF92FF920F9385
:102C30001F93CF93DF93EC01262F80EE860F803A0F
:102C4000C0F5EA88FB88088919894E855F856C85FF
:102C50007D85CC88CE010E9437152C89422F50E00B
:102C60008C859D8536E0239F800D911D11249D87C5
:102C70008C872E892223D1F06AEF64039001659F2F
:102C8000300D112468857985260F371F28173907DD
:102C90006CF403E0440F551F0A95E1F78E859F857C
:102CA000840F951F9F878E871D861C8681E090E08C
:102CB00000C0DF91CF911F910F91FF90EF90CF90C7
:102CC0000895FC01758764875787468708956111C9
:102CD00001C061E0FC01648B0895FC01738B628B81
:102CE000718B608B0895FC01718B608B538B428BD1
:102CF000089564357105B0F54033510598F5CA0162
:102D0000E3E095958795EA95E1F747705527232BE2
:102D1000A1F024E5289FF001299FF00D1124E60F72
:102D2000F71FEE56FE4F81E090E0042E01C0880FA1
:102D30000A94EAF79081982B14C024E5289FF001AB
:102D4000299FF00D1124E60FF71FEE56FE4F81E08C
:102D500090E0042E01C0880F0A94EAF780959081D4
:102D6000982390830895CF92DF92EF92FF920F9372
:102D70001F93CF93DF931F92CDB7DEB76C01162F51
:102D8000F42E40E350E064E570E029830E940C14C7
:102D900086E994E0F60191838083F78A108F298178
:102DA000218FE28E038F0F90DF91CF911F910F91B2
:102DB000FF90EF90DF90CF900895FC0188E090E0C5
:102DC00030E8A68DB78D4C9125A1209524232C9316
:102DD000A48DB58D24A1432F462321F04C91422B85
:102DE0004C9304C04C91209524232C93A68DB78D31
:102DF0002C9145A1242B2C933695019711F708951A
:102E00001F93CF93DF93EC01162F60E0898D0E9412
:102E10006C1C8B8D18161CF460E00E946C1C612FDA
:102E2000CE010E94DD168B8D181634F461E0DF911F
:102E3000CF911F910C946C1CDF91CF911F9108953D
:102E40001F93CF93DF93EC01162F67FD1FE761E21D
:102E5000CE010E940017612F6068CE010E9400170A
:102E600060E2CE01DF91CF911F910C940017DF92A9
:102E7000EF92FF920F931F93CF93DF93EC01F2E950
:102E8000EF2EF1E0FF2ED12C6D2D6064CE010E945B
:102E9000001760E8CE010E94001761E0898D0E9452
:102EA0006C1C8B8D18161CF460E00E946C1C00E0FA
:102EB00010E0F701E00FF11F6081CE010E94DD16E6
:102EC0000F5F1F4F04351105A1F78B8D18161CF4E9
:102ED00061E00E946C1CD39484E5E80EF11C86E04E
:102EE000D812D2CF60E4CE01DF91CF911F910F9124
:102EF000FF90EF90DF900C9400171F93CF93DF9318
:102F0000EC01162F61E08F890E94331C61E0888DEF
:102F10000E94331C61E0898D0E94331C8A8D181633
:102F20001CF461E00E94331C8B8D18161CF461E0C8
:102F30000E94331C8A8D181684F460E00E946C1C79
:102F40002FEF89E698E1215080409040E1F700C0E2
:102F5000000061E08A8D0E946C1C888D992787FD96
:102F60009095FC01E055FC4FE491F0E0EE0FFF1F5F
:102F7000E253FC4F259134913F8F2E8FFC01E45694
:102F8000FC4F84918DA38F89992787FD9095FC0133
:102F9000E055FC4FE491F0E0EE0FFF1FE253FC4FD1
:102FA000259134913D8F2C8FFC01E456FC4F849188
:102FB0008CA38B8D992787FD9095FC01E055FC4FE4
:102FC000E491F0E0EE0FFF1FE253FC4F25913491A6
:102FD00039A328A3FC01E456FC4F84918EA3898D6C
:102FE000992787FD9095FC01E055FC4FE491F0E0B6
:102FF000EE0FFF1FE253FC4F259134913BA32AA310
:10300000FC01E456FC4F84918FA361E2CE010E9443
:10301000001764E1CE010E94001717FD1FE7612F22
:103020006068CE010E94001760E2CE010E94001786
:103030006CE0CE010E940017CE01DF91CF911F916D
:103040000C94371728EF31E0E2E9F1E0DF01A90144
:103050001D9241505040E1F7DC011D961C921E92DA
:103060001C971F961C921E921E9708958A309105F8
:1030700008F475C01092E8071092E7071092F50760
:103080001092F4071092F0071092F1071092F207D5
:103090001092F3071092EB07209180002093FA071B
:1030A000209181002093F9071092810010928000F6
:1030B000109285001092840021E026BB10926F00D0
:1030C0002091B0002093F8072091B1002093F707DA
:1030D0001092B10022E02093B0009C0127703327AA
:1030E000232B51F443E0969587954A95E1F72CE719
:1030F0002093B30027E018C09C0123703327232BB3
:1031000031F4969587959695879529EF05C080FDB2
:1031100007C0969587952CE72093B30026E004C05E
:103120002CE72093B30025E02093F60722E027BB8D
:103130001092B2009093EA078093E9079FB7F89442
:1031400082E083BD2091F6072093B1008093700048
:103150008BE08150F1F787E0809381009FBF089555
:103160008091EB0708952FB7F8946091EC07709168
:10317000ED078091EE079091EF071092EB072FBFBC
:1031800008951F920F920FB60F9211240F931F9361
:103190002F933F934F935F936F937F938F939F935F
:1031A000AF93BF932091840030918500B09B0BC0FA
:1031B00081E086BB8091F4079091F507019690938A
:1031C000F5078093F4078091E7079091E80701964F
:1031D0004091E9075091EA078417950798F11092FA
:1031E000E8071092E7078091F4079091F507A0E0B7
:1031F000B0E0DC0199278827820F931FA11DB11D24
:103200004091F0075091F1076091F2077091F30738
:103210008C019D01041B150B260B370B0093EC074B
:103220001093ED072093EE073093EF078093F0079C
:103230009093F107A093F207B093F30781E0809396
:10324000EB0704C09093E8078093E707BF91AF9125
:103250009F918F917F916F915F914F913F912F91AE
:103260001F910F910F900FBE0F901F901895E1E8DE
:10327000F0E090818770987F892B80830895CF92AA
:10328000DF92EF92FF926B017C01DC01CB01019791
:10329000A109B10980389448AE41B10508F041C098
:1032A000A70196016EEF7FEF81E090E00E94E82297
:1032B0009B01AC0160E074E284EF90E00E94042383
:1032C000E0E061E06E0FF0E0EE0FFF1FE654FB4F11
:1032D000808191818217930710F4E62FF2CFA70126
:1032E0009601220F331F441F551FE62EF12CF701C4
:1032F000EE0FFF1FE654FB4FA081B1810E945423C3
:103300009B01AC0160E074E284EF90E00E94042332
:103310003093870020938600C7010E94371981E00F
:1033200001C080E0FF90EF90DF90CF900895E0E83B
:10333000F0E080818C7F8083E1E8F0E08081877E0F
:103340008061808364EF71E080E090E00C943F192D
:10335000FC01EB5BFF4F8081887F6770862B808349
:103360000895FC01EB5BFF4F8081887F6770862B9F
:10337000808308954F925F926F927F928F929F9277
:10338000AF92BF92CF92DF92EF92FF92CF93DF93F3
:10339000EC016A017B01DB01CA014F97A109B10968
:1033A00082369448AE41B10508F05BC0AEEFB1E0A3
:1033B0009A01AB010E9454239B01AC0160E074E2CE
:1033C00084EF90E00E94042346015701880C991C69
:1033D000AA1CBB1CD12C412C84E2582E84EF682EF1
:1033E000712CCC36D10569F0D394ED2DF0E0EE0FC1
:1033F000FF1FE654FB4FE080F180E216F306A0F3D6
:103400000CC0D394ED2DF0E0EE0FFF1FE655FB4FFF
:10341000E080F180E216F306A0F3D701A501940144
:103420000E9454239B01AC01C301B2010E940423FA
:103430002F3F310519F010F09701D3CFFE01E95B62
:10344000FF4F20836D2D70E0CC36D10521F0CE01E9
:103450000E94A81904C08CE690E00E94B11981E096
:1034600001C080E0DF91CF91FF90EF90DF90CF908F
:10347000BF90AF909F908F907F906F905F904F9094
:103480000895FC01EC5BFF4F20812C7F216020839D
:103490003196208128602083009729F420916E00C6
:1034A0002E7F20936E0044EF51E060E070E00C94BA
:1034B000BA191F93CF93DF93C82F162F61E00E9494
:1034C000331C111102C060E003C01F3F39F461E0FA
:1034D0008C2FDF91CF911F910C946C1CEC2FF0E09E
:1034E000E857FC4FE491E330D1F050F4E23079F545
:1034F00084B5806284BD27B530E0C8E4D0E037C031
:10350000E430C9F0E83019F58091B0008062809312
:10351000B0002091B30030E0C4EBD0E028C080912F
:103520008000806880938000209186003091870021
:10353000C8E8D0E00FC08091800080628093800056
:103540002091860030918700CAE8D0E003C017FFC1
:10355000BACFBDCFA12FB0E00E9445232FEF30E0BE
:1035600040E050E00E940423398328830BC0A12F40
:10357000B0E00E9445232FEF30E040E050E00E9491
:1035800004232883DF91CF911F9108950E949719FA
:103590008CE690E00C94411AE82FFF27E7FDF095A8
:1035A000E857FC4FE4918DEF8E0F823020F4CB0171
:1035B000BA010C943F19E83021F48CE690E00C94A9
:1035C000BA1980E008951F920F920FB60F9211243E
:1035D0002F933F934F935F936F937F938F939F931B
:1035E000AF93BF93EF93FF938091FB079091FC07FC
:1035F0009093850080938400E091FD07F091FE0791
:103600000995FF91EF91BF91AF919F918F917F911C
:103610006F915F914F913F912F910F900FBE0F903F
:103620001F9018951F920F920FB60F9211242F938F
:103630003F938F939F93AF93BF9380910008909196
:103640000108A0910208B09103083091FF0723E020
:10365000230F2D3720F40196A11DB11D05C026E8CA
:10366000230F0296A11DB11D2093FF078093000830
:1036700090930108A0930208B09303088091040876
:1036800090910508A0910608B09107080196A11D28
:10369000B11D8093040890930508A0930608B09389
:1036A0000708BF91AF919F918F913F912F910F90FC
:1036B0000FBE0F901F9018953FB7F89480910408A3
:1036C00090910508A0910608B091070826B5A89B1F
:1036D00005C02F3F19F00196A11DB11D3FBF662700
:1036E000782F892F9A2F620F711D811D911D42E045
:1036F000660F771F881F991F4A95D1F70895CF92BB
:10370000DF92EF92FF92CF93DF936B017C010E94D7
:103710005C1BEB01C114D104E104F10489F00E94A7
:10372000C8200E945C1B6C1B7D0B683E734090F3AD
:1037300081E0C81AD108E108F108C851DC4FEACF8E
:10374000DF91CF91FF90EF90DF90CF90089582307E
:10375000910538F0880F991F880F991F05970197D9
:10376000F1F70895789484B5826084BD84B5816052
:1037700084BD85B5826085BD85B5816085BDEEE679
:10378000F0E0808181608083E1E8F0E01082808158
:1037900082608083808181608083E0E8F0E08081C6
:1037A00081608083E1EBF0E0808184608083E0EBE6
:1037B000F0E0808181608083EAE7F0E080818460CE
:1037C000808380818260808380818160808380812A
:1037D000806880831092C10008958E3008F08E506A
:1037E000877020918A0390E4299F90011124822BF5
:1037F00080937C0080917A00806480937A0080912D
:103800007A0086FDFCCF809178002091790090E0CD
:10381000922B0895833081F028F4813099F0823022
:10382000A1F008958730A9F08830B9F08430D1F440
:10383000809180008F7D03C0809180008F7780937E
:103840008000089584B58F7702C084B58F7D84BDD4
:1038500008958091B0008F7703C08091B0008F7D74
:103860008093B0000895CF93DF9390E0FC01E4567D
:10387000FC4F2491FC01E055FC4F8491882349F1D1
:1038800090E0880F991FFC01E852FC4FA591B4917C
:1038900082539C4FFC01C591D4919FB7611108C020
:1038A000F8948C91209582238C93888182230AC07E
:1038B000623051F4F8948C91322F309583238C939D
:1038C0008881822B888304C0F8948C91822B8C93FE
:1038D0009FBFDF91CF9108950F931F93CF93DF93F5
:1038E0001F92CDB7DEB7282F30E0F901E857FC4F23
:1038F0008491F901E456FC4F1491F901E055FC4F15
:1039000004910023C9F0882321F069830E940A1CD6
:103910006981E02FF0E0EE0FFF1FE253FC4FA5910D
:10392000B4919FB7F8948C91611103C010958123D5
:1039300001C0812B8C939FBF0F90DF91CF911F917E
:103940000F910895CF93DF93282F30E0F901E857C6
:10395000FC4F8491F901E456FC4FD491F901E055F4
:10396000FC4FC491CC2391F081110E940A1CEC2FD2
:10397000F0E0EE0FFF1FEC53FC4FA591B4912C919A
:103980002D2381E090E021F480E002C080E090E00F
:10399000DF91CF9108950E946523FC01818D228DD6
:1039A00090E0805C9F4F821B91098F739927089547
:1039B000FC01918D828D981731F0828DE80FF11DF9
:1039C000858D90E008958FEF9FEF0895FC01918D14
:1039D000828D981761F0828DDF01A80FB11D5D9671
:1039E0008C91928D9F5F9F73928F90E008958FEFDF
:1039F0009FEF08958AE69EE1892B49F080E090E0F0
:103A0000892B29F00E946A1E81110C9400000895F0
:103A1000FC01848DDF01A80FB11DA35ABF4F2C916B
:103A2000848D90E001968F739927848FA689B7893A
:103A30002C93A089B1898C9180648C93938D848D13
:103A4000981306C00288F389E02D80818F7D8083E2
:103A50000895CF93DF93EC01888D8823C9F0EA891C
:103A6000FB89808185FD05C0A889B9898C9186FD77
:103A70000FC00FB607FCF5CF808185FFF2CFA88974
:103A8000B9898C9185FFEDCFCE010E94081DE7CF4B
:103A9000DF91CF910895CF92DF92FF920F931F9302
:103AA000CF93DF931F92CDB7DEB76C0181E0D601D3
:103AB00058968C9358975B969C915B975C968C91EB
:103AC0005C97981307C05096ED91FC9151978081B7
:103AD00085FD2EC0F601038D10E00F5F1F4F0F73A1
:103AE0001127F02EF601848DF81211C00FB607FCD5
:103AF000F9CFD6015096ED91FC915197808185FFC9
:103B0000F1CFC60169830E94081D6981EBCF838DC7
:103B1000E80FF11DE35AFF4F6083D6015B960C93CB
:103B20005B975296ED91FC915397808180620CC017
:103B3000D6015696ED91FC91579760835096ED9182
:103B4000FC91519780818064808381E090E00F90A8
:103B5000DF91CF911F910F91FF90DF90CF9008954B
:103B6000BF92CF92DF92EF92FF92CF93DF93EC015F
:103B70006A017B01B22EE889F98982E080834115D0
:103B800081EE580761057105A1F060E079E08DE3F1
:103B900090E0A70196010E940423215031094109B8
:103BA00051095695479537952795211580E1380796
:103BB00098F0E889F989108260E874E88EE190E075
:103BC000A70196010E94042321503109410951099E
:103BD0005695479537952795EC85FD853083EE857D
:103BE000FF852083188EEC89FD89B082EA89FB89E4
:103BF000808180618083EA89FB89808188608083FD
:103C0000EA89FB89808180688083EA89FB898081D9
:103C10008F7D8083DF91CF91FF90EF90DF90CF90E9
:103C2000BF9008951F920F920FB60F9211242F93F9
:103C30008F939F93EF93FF93E0911808F0911908E9
:103C40008081E0911E08F0911F0882FD12C09081D2
:103C5000809121088F5F8F7320912208821751F085
:103C6000E0912108F0E0E85FF74F958F80932108FD
:103C700001C08081FF91EF919F918F912F910F90C3
:103C80000FBE0F901F9018951F920F920FB60F92B4
:103C900011242F933F934F935F936F937F938F9351
:103CA0009F93AF93BF93EF93FF9388E098E00E94B8
:103CB000081DFF91EF91BF91AF919F918F917F91DF
:103CC0006F915F914F913F912F910F900FBE0F9089
:103CD0001F90189588E098E00E94CD1C21E0892B68
:103CE00009F420E0822F089510920B0810920A0820
:103CF00088EE93E0A0E0B0E080930C0890930D086C
:103D0000A0930E08B0930F088AEC94E090930908F2
:103D10008093080885EC90E0909315088093140830
:103D200084EC90E0909317088093160880EC90E064
:103D3000909319088093180881EC90E090931B08E9
:103D400080931A0882EC90E090931D0880931C08E1
:103D500086EC90E090931F0880931E081092210833
:103D600010922208109223081092240808950895B2
:103D70000E94B21B0E94B71E0E941D02CAEFDCE126
:103D80000E94D10B2097E1F30E94FA1CF9CFCF9249
:103D9000DF92EF92FF920F931F93CF93DF936C010B
:103DA0007A01EB01E60EF71E00E010E0CE15DF050C
:103DB00061F06991D601ED91FC910190F081E02DC7
:103DC000C6010995080F191FF1CFC801DF91CF91E6
:103DD0001F910F91FF90EF90DF90CF9008956115A4
:103DE000710581F0DB010D900020E9F7AD01415034
:103DF0005109461B570BDC01ED91FC910280F381C8
:103E0000E02D099480E090E008950C94EF1EDC0111
:103E1000ED91FC910190F081E02D099466ED74E044
:103E20000C94EF1E0F931F93CF93DF93EC010E942E
:103E3000EF1E8C01CE010E940E1F800F911FDF919B
:103E4000CF911F910F9108958F929F92AF92BF9241
:103E5000CF92DF92EF92FF920F931F93CF93DF9356
:103E6000CDB7DEB7A1970FB6F894DEBF0FBECDBFBA
:103E70007C01C42EE52FCB01D22E19A221E02D15F5
:103E800010F02AE0D22E8E010F5D1F4F8D2C912C49
:103E9000A12CB12C6C2D7E2FA50194010E9404232E
:103EA0008C2DD29E80191124015011098A3014F4EE
:103EB000805D01C0895CF8018083211531054105D1
:103EC000510521F0C22EE32FCA01E4CFB801C7018A
:103ED0000E94EF1EA1960FB6F894DEBF0FBECDBFB5
:103EE000DF91CF911F910F91FF90EF90DF90CF90D6
:103EF000BF90AF909F908F900895CF92DF92EF92F6
:103F0000FF920F931F93CF93DF93EC016A017B0124
:103F10002115310579F4E881F9810190F081E02DD6
:103F2000642FDF91CF911F910F91FF90EF90DF9061
:103F3000CF9009942A303105E9F477FF1AC06DE279
:103F40000E94071F8C0144275527BA014C195D09AF
:103F50006E097F092AE0CE010E94241F800F911F65
:103F6000DF91CF911F910F91FF90EF90DF90CF9055
:103F700008952AE0B701A601CE01DF91CF911F91EC
:103F80000F91FF90EF90DF90CF900C94241F21159C
:103F9000310541F4DC01ED91FC910190F081E02DBF
:103FA000642F09940C94241F9A01462F50E060E07E
:103FB00070E00C94C71F4F925F926F927F928F9226
:103FC0009F92AF92BF92CF92DF92EF92FF920F93A8
:103FD0001F93CF93DF93EC016A017B01B22E9A010C
:103FE000AB01C701B6010E94E422882319F069EDF4
:103FF00074E027C026013701E89477F82FEF3FEFF0
:104000004FE75FE7C301B2010E94E42281110DC0B6
:104010002FEF3FEF4FE75FE7C301B2010E942E2170
:1040200018161CF46DED74E00CC02FEF3FEF4FE756
:104030005FE4C701B6010E947D221816ACF461EE60
:1040400074E0CE01DF91CF911F910F91FF90EF901F
:10405000DF90CF90BF90AF909F908F907F906F90A8
:104060005F904F900C94EF1E2FEF3FEF4FE75FEC08
:10407000C701B6010E942E2187FDE1CF20E030E08C
:10408000A901C701B6010E942E2187FF0AC06DE277
:10409000CE010E94071F8C01F7FAF094F7F8F09414
:1040A00002C000E010E0A12C60E070E080E09FE33F
:1040B000AB1441F020E030E040E251E40E943221B4
:1040C000A394F6CF9B01AC01C701B6010E94CA20A0
:1040D0006B017C010E949F212B013C010E94CB219E
:1040E0009B01AC01C701B6010E94C9206B017C0194
:1040F0002AE0B301A201CE010E94241F080F191F5C
:10410000BB2039F065EE74E0CE010E94EF1E080F6F
:10411000191F7B2C772041F120E030E040E251E490
:10412000C701B6010E9481226B017C010E949A2185
:104130004B01AA2497FCA094BA2C2AE030E0B501E8
:10414000A401CE010E947D1F080F191FC501B401F3
:104150000E94CD219B01AC01C701B6010E94C9207C
:104160006B017C017A94D6CFC801DF91CF911F916A
:104170000F91FF90EF90DF90CF90BF90AF909F9006
:104180008F907F906F905F904F9008950C94DB1FFD
:1041900008955058BB27AA270ED075C166D130F0BC
:1041A0006BD120F031F49F3F11F41EF45BC10EF48B
:1041B000E095E7FB51C1E92F77D180F3BA17620789
:1041C00073078407950718F071F49EF58FC10EF4FC
:1041D000E0950B2EBA2FA02D0B01B90190010C0117
:1041E000CA01A0011124FF27591B99F0593F50F42F
:1041F000503E68F11A16F040A22F232F342F442787
:10420000585FF3CF469537952795A795F04053957E
:10421000C9F77EF41F16BA0B620B730B840BBAF04E
:104220009150A1F0FF0FBB1F661F771F881FC2F7B9
:104230000EC0BA0F621F731F841F48F487957795CD
:104240006795B795F7959E3F08F0B3CF9395880F84
:1042500008F09927EE0F979587950895D9D008F41F
:1042600081E008950CD00FC107D140F0FED030F0AE
:1042700021F45F3F19F0F0C0511139C1F3C014D1DE
:1042800098F39923C9F35523B1F3951B550BBB271D
:10429000AA2762177307840738F09F5F5F4F220FCA
:1042A000331F441FAA1FA9F333D00E2E3AF0E0E8C3
:1042B00030D091505040E695001CCAF729D0FE2F0F
:1042C00027D0660F771F881FBB1F261737074807A1
:1042D000AB07B0E809F0BB0B802DBF01FF27935857
:1042E0005F4F2AF09E3F510568F0B6C000C15F3FA6
:1042F000ECF3983EDCF3869577956795B795F7953F
:104300009F5FC9F7880F911D9695879597F9089536
:10431000E1E0660F771F881FBB1F621773078407D2
:10432000BA0720F0621B730B840BBA0BEE1F88F7E1
:10433000E095089504D06894B111D9C00895BCD017
:1043400088F09F5790F0B92F9927B751A0F0D1F07E
:10435000660F771F881F991F1AF0BA95C9F712C008
:10436000B13081F0C3D0B1E00895C0C0672F782F7D
:104370008827B85F39F0B93FCCF386957795679574
:10438000B395D9F73EF490958095709561957F4FE0
:104390008F4F9F4F0895E89409C097FB3EF4909586
:1043A0008095709561957F4F8F4F9F4F9923A9F00E
:1043B000F92F96E9BB279395F6958795779567959D
:1043C000B795F111F8CFFAF4BB0F11F460FF1BC0E1
:1043D0006F5F7F4F8F4F9F4F16C0882311F096E974
:1043E00011C0772321F09EE8872F762F05C0662322
:1043F00071F096E8862F70E060E02AF09A95660FDB
:10440000771F881FDAF7880F9695879597F9089593
:10441000990F0008550FAA0BE0E8FEEF16161706D5
:10442000E807F907C0F012161306E407F50798F03D
:10443000621B730B840B950B39F40A2661F0232B56
:10444000242B252B21F408950A2609F4A140A695D2
:104450008FEF811D811D089597F99F6780E870E0B7
:1044600060E008959FEF80EC089500240A941616EA
:10447000170618060906089500240A941216130652
:10448000140605060895092E0394000C11F48823E0
:1044900052F0BB0F40F4BF2B11F460FF04C06F5FFC
:1044A0007F4F8F4F9F4F089557FD9058440F551FD2
:1044B00059F05F3F71F04795880F97FB991F61F0A6
:1044C0009F3F79F087950895121613061406551F1D
:1044D000F2CF4695F1DF08C0161617061806991F89
:1044E000F1CF86957105610508940895E894BB277E
:1044F00066277727CB0197F908958ADF08F48FEFB5
:1045000008950BD0C0CFB1DF28F0B6DF18F09523A7
:1045100009F0A2CFA7CF1124EACFC6DFA0F3959F61
:10452000D1F3950F50E0551F629FF001729FBB279A
:10453000F00DB11D639FAA27F00DB11DAA1F649F46
:104540006627B00DA11D661F829F2227B00DA11DF9
:10455000621F739FB00DA11D621F839FA00D611D7F
:10456000221F749F3327A00D611D231F849F600DA0
:10457000211D822F762F6A2F11249F5750408AF0D9
:10458000E1F088234AF0EE0FFF1FBB1F661F771F65
:10459000881F91505040A9F79E3F510570F05CCFA5
:1045A000A6CF5F3FECF3983EDCF386957795679551
:1045B000B795F795E7959F5FC1F7FE2B880F911D83
:1045C0009695879597F9089523DF880B990B0895A1
:1045D000DB018F939F930E945423BF91AF91A29FC1
:1045E000800D911DA39F900DB29F900D11240895F1
:1045F000991B79E004C0991F961708F0961B881F35
:104600007A95C9F780950895A1E21A2EAA1BBB1BC3
:10461000FD010DC0AA1FBB1FEE1FFF1FA217B3078E
:10462000E407F50720F0A21BB30BE40BF50B661FA4
:10463000771F881F991F1A9469F760957095809568
:1046400090959B01AC01BD01CF010895052E97FB0C
:104650001EF400940E943D2357FD07D00E940423BE
:1046600007FC03D04EF40C943D23509540953095B3
:1046700021953F4F4F4F5F4F0895909580957095CE
:1046800061957F4F8F4F9F4F0895A29FB001B39FB9
:10469000C001A39F700D811D1124911DB29F700D4B
:1046A000811D1124911D08950E944523A59F900D01
:1046B000B49F900DA49F800D911D11240895EE0FBD
:1046C000FF1F0590F491E02D099481E090E0F894AB
:0846D0000C946A23F894FFCF5B
:1046D8008025000006010112233445566778899A1F
:1046E800ABBCCDDEEFFFEFDFCFBFAF9F8F7F6F5F3C
:1046F8004F3F2F1F0F01FAF6EEE6DED6CEC6BEB646
:10470800AEA69E968E867E766E665E564E463E3681
:1047180029211911090101091119212931394149A1
:1047280051596169717981899199A1A9B1B9C1C9B1
:10473800D1D9E1EBF5FF01060F1D30455C758FA857
:10474800BFD4E5F3FBFFFEF8EDDECBB59C836A51E1
:104758003B27160A03010000A040F4010000800076
:104768001E340000000000000000000000000000EF
:104778000000000000000000000000000000000031
:104788000000000000000000C0E0F0F8FCFCFEFFA4
:10479800FCE0000000000000000000000000000035
:1047A8000000000000000000000000000000000001
:1047B80000000000000000000000000000000000F1
:1047C80000000000000000F8F8F8F8F8F8F8F8F829
:1047D800F8F8F8F0F0E0E0C080C0FCFFFFFFFF7FD2
:1047E8003F7FFFFFFFFFFF00000000000000000008
:1047F80000000000000000000000000000000000B1
:1048080000000000000000000000000000000000A0
:104818000000000000000000000000000F1F3F7FA4
:10482800FFFFFFFFFFFFFFFFE7C7C7878F9F9FFFC0
:10483800FFFFC1C0E0FCFFFFFFFFFFFCFCFCFCFE2C
:10484800FEFEFCFCF8F8F0E0C0C00000000000002C
:104858000000000000000000000000000000000050
:104868000000000000000000000000000000000040
:1048780000000080C0E0F1FBFFFFFFFFFF7F1F0F7C
:104888000F87E7FFFFFF1F1F3FF9F8F8F8F8F8F860
:10489800FDFFFFFFFFFFFFFFFFFF7F3F0F07010047
:1048A8000000000000000000000000000000000000
:1048B80000000000000000000000000000000000F0
:1048C8000000000000F0FEFFFFFFFFFFFFFFFFFFFB
:1048D800FFFE7E3F3F0F1FFFFFFFFCF0E0F1FFFFF1
:1048E800FFFFFFFCF00101010101010101000000CF
:1048F80000000000000000000000000000000000B0
:10490800000000000000000000000000000000009F
:10491800000000000000000000030303030303037A
:10492800030101010100000000000000030F1F3F08
:104938007F7FFFFFFFFF7F7F1F0300000000000055
:10494800000000000000000000000000000000005F
:104958000000000000000000000001D09FD183D0BB
:10496800BBD18CD182D0BED181D0BAD0BED0BF004D
:10497800D093D0B5D0BDD0B5D180D0B0D182D0BE83
:10498800D18000444453D0B3D0B5D0BDD0B5D18088
:10499800D0B0D182D0BED18000D0A2D0B5D180D045
:1049A800BCD0B8D0BDD0B0D0BB00D091D0B0D182EF
:1049B800D0B0D180D0B5D18F3D00D0920050574DA6
:1049C8003D002025004B487A003E3E5820005057B5
:1049D8004D20003C3C00D0A1D0B8D0BDD183D181BE
:1049E80000D0A2D180D0B5D183D0B3D0BED0BBD1B6
:1049F8008CD0BDD0B8D0BA00D09FD0B8D0BBD0B082
:104A080000D09FD0B8D0BBD0B020D09ED0B1D1803C
:104A180000D0A1D0BAD0BED180D0BED181D182D1B0
:104A28008C002D002B00D09DD0B0D0B6D0BCD0B813
:104A380020D09ED09A2DD181D182D0B0D180D18280
:104A480000312E31002050005600000000001416DE
:104A5800C71ECB1C85128B13A2133C13B813ED137E
:104A68000B14000000001416C71E791685128B134C
:104A7800A2133C13B813ED130B1400000100080037
:104A88002000400080000001000400000100080030
:104A9800400000010004000000004B1DC71ECD1C93
:104AA800E61CD81C291D0D0A006E616E00696E6631
:084AB800006F7666002E00007D
:00000001FF
